:020000040800F2
:1000000080070020D5010008AD3900082907000845
:10001000A9390008A50400085340000800000000AA
:10002000000000000000000000000000913B0008FC
:10003000B904000800000000593A0008A53C000877
:10004000EF010008EF010008EF010008EF010008D0
:10005000EF010008EF010008EF010008EF010008C0
:10006000EF010008EF010008EF010008EF010008B0
:10007000EF010008EF010008EF010008EF010008A0
:10008000EF010008EF010008EF010008EF01000890
:10009000EF010008EF010008EF010008EF01000880
:1000A000EF010008EF010008EF010008EF01000870
:1000B000EF010008093D0008EF010008EF0100080A
:1000C000EF010008EF010008EF010008EF01000850
:1000D000EF010008313E0008EF010008EF010008C1
:1000E000EF010008EF010008EF010008EF01000830
:1000F000EF010008EF010008EF010008EF01000820
:10010000EF010008EF010008EF010008EF0100080F
:10011000EF010008EF010008EF010008EF010008FF
:10012000EF010008EF010008EF010008EF010008EF
:1001300000F002F800F03FF80AA090E8000C8244BA
:100140008344AAF10107DA4501D100F034F8AFF297
:10015000090EBAE80F0013F0010F18BFFB1A43F0A5
:10016000010318477864000098640000103A24BF27
:1001700078C878C1FAD8520724BF30C830C144BF0C
:1001800004680C607047000000230024002500264E
:10019000103A28BF78C1FBD8520728BF30C148BFEA
:1001A0000B607047782900F07780002070471FB5FA
:1001B0001FBD10B510BD00F027F91146FFF7F7FF7E
:1001C00003F0C8FF00F045F903B4FFF7F2FF03BCEA
:1001D00003F041FF0948804709480047FEE7FEE772
:1001E000FEE7FEE7FEE7FEE7FEE7FEE7FEE7FEE7E7
:1001F00004480549054A064B70470000A93C000821
:1002000031010008800100208007002080030020C9
:1002100080030020704700000FB4044910B503AA02
:10022000029800F0C3F810BC5DF814FB2400002015
:100230002DE9F0410E460446002020622046E16888
:10024000884730B3252805D0D4E901219047206A9A
:10025000401CF2E7E168204600278847050018D0D7
:10026000A5F14100192802D820354FF40067324625
:10027000294620462760FFF795FF40B1012804D0AA
:10028000F61D26F007060836D8E7361DD6E72846BD
:10029000DAE7206ABDE8F08170B504460D462146D4
:1002A0001068AFF300802188090502D50F4A7A440F
:1002B00002E00E4A7A440E32002104F1240305E0E4
:1002C00000F00F060009965D5E54491C0028F7D126
:1002D00020780023000704D5702D02D009B1022335
:1002E00011322046BDE8704000F006B800630000FF
:1002F00070477047704770472DE9F0470D469946A3
:100300009246044600F124080168880604D5E06995
:1003100021F01001216000E00120A84201DD471B0F
:1003200000E00027A1697A1902EB0900081AA06110
:100330002078C00602D42046AFF30080002608E0F3
:10034000D4E901211AF806009047206A401C761C67
:1003500020624E45F4DB2078C0060AD52046AFF374
:10036000008006E0D4E9012130209047206A401C3B
:100370002062381EA7F10107F4DC07E0D4E901216F
:1003800018F805009047206A401C2062281EA5F13D
:100390000105F3DC2046AFF300802078000602D58B
:1003A0000220BDE8F0870120FBE70000074B70B595
:1003B0000D467B4400F011F80446284600F020F872
:1003C00010B14FF0FF3070BD204670BD833D00007E
:1003D00001694A1C02610878704700B58FB0CDE909
:1003E00001310021059105497944CDE903101146F9
:1003F0006846FFF71DFF0FB000BD0000E5FFFFFFDF
:10040000007B00F080007047754600F02BF8AE4688
:1004100005006946534620F00700854618B020B510
:10042000FFF7E6FEBDE820404FF000064FF0000762
:100430004FF000084FF0000B21F00701AC46ACE88C
:10044000C009ACE8C009ACE8C009ACE8C0098D46F9
:10045000704710B50446AFF300802046BDE8104059
:10046000FFF7B2BE004870471C01002008B501210B
:10047000082003F013FB4FF48070ADF8000010204B
:100480008DF8030003208DF802006946044800F04F
:10049000A2F84FF48071024800F028F908BD00006E
:1004A000000C014000BFFEE710B50021014803F039
:1004B00042FC10BD000400407047000051B18200B2
:1004C000A2F1C042126842F001038200A2F1C042D0
:1004D000136009E08200A2F1C0421268034B1A4087
:1004E0008300A3F1C0431A6070470000FEFF0F00B5
:1004F000D0E901121143C2681143026911434269F4
:10050000114382691143C2691143026A1143426A6D
:100510001143826A1143C26A1143026B114302689C
:100520009200A2F1C0421160816808290BD10168D4
:100530008900A1F1C041096841F0400201688900C9
:10054000A1F1C0410A60416B0968426B526841EAFF
:100550000211426B926841EA0221426B928941EAA0
:100560000241426B128A41EA0251426B127D41EA1A
:100570000261426B926911430268521C9200A2F11F
:10058000C0421160C16AB1F5804F1BD1816B09680F
:10059000826B526841EA0211826B926841EA022141
:1005A000826B128A41EA0251826B127D41EA02613A
:1005B000826B9269114302689200A2F1C042C2F8B4
:1005C000041107E06FF0704201688900A1F1C04199
:1005D000C1F8042170472DE9F041024600250026AC
:1005E000002000230024002791F803C00CF00F0521
:1005F00091F803C00CF0100CBCF1000F03D091F87F
:1006000002C04CEA050591F800C0BCF1000F31D0E2
:10061000146800202BE04FF0010C0CFA00F3B1F845
:1006200000C00CEA03069E4220D183004FF00F0C5D
:100630000CFA03F7BC4305FA03FC4CEA040491F8F6
:1006400003C0BCF1280F06D14FF0010C0CFA00FCDE
:10065000C2F814C00AE091F803C0BCF1480F05D1FC
:100660004FF0010C0CFA00FCC2F810C0401C082826
:10067000D1D31460B1F800C0BCF1FF0F34DD546871
:1006800000202EE000F1080C4FF0010808FA0CF3EE
:10069000B1F800C00CEA03069E4221D183004FF05E
:1006A0000F0C0CFA03F7BC4305FA03FC4CEA0404F4
:1006B00091F803C0BCF1280F05D100F1080C08FA2D
:1006C0000CF8C2F8148091F803C0BCF1480F07D1B0
:1006D00000F1080C4FF0010808FA0CF8C2F810807D
:1006E000401C0828CED35460BDE8F08141617047BA
:1006F0000161704710B500BF094800884FF47A7156
:1007000000FB01F4074803F022FB044400200549E4
:1007100024310880322003F0C3FC204610BD0000C5
:100720003E0000200004004000BFFEE72DE9F84F26
:100730004FF0000A0024A346A14631E001202149E0
:100740000860142003F0D2FC00201F49C1F880018A
:1007500000BF1C487C3800680028FAD003F06AF912
:10076000641C00BF17487C3800680128FAD0FFF7E6
:100770009BFEFFF7BFFF8246504604F067FA0090E9
:1007800004F0B6F907460022104B03F0A9FE054617
:1007900003F068FE83464946584604F0D5F9814681
:1007A000052CCBD1484604F0A3F907460022084B9C
:1007B00003F096FE054603F055FE83465846BDE815
:1007C000F88F0000808123420080234200004D40CA
:1007D000000014402DE9F84F4FF0000A0024A34612
:1007E000A14631E0012021490860142003F07EFC7D
:1007F00000201F49C1F8880100BF1C487C380068F0
:100800000028FAD003F016F9641C00BF17487C38A2
:1008100000680128FAD0FFF747FEFFF76BFF82461A
:10082000504604F013FA009004F062F907460022E3
:10083000104B03F055FE054603F014FE834649466F
:10084000584604F081F98146052CCBD1484604F086
:100850004FF907460022084B03F042FE054603F01D
:1008600001FE83465846BDE8F88F00008881234288
:100870000080234200004D40000014402DE9F84F55
:100880004FF0000A0024A346A14631E0012021498F
:100890000860142003F02AFC00201F49C1F89001D1
:1008A00000BF1C487C3800680028FAD003F0C2F86A
:1008B000641C00BF17487C3800680128FAD0FFF795
:1008C000F3FDFFF717FF8246504604F0BFF9009092
:1008D00004F00EF907460022104B03F001FE054616
:1008E00003F0C0FD83464946584604F02DF9814681
:1008F000052CCBD1484604F0FBF807460022084BF4
:1009000003F0EEFD054603F0ADFD83465846BDE815
:10091000F88F0000908123420080234200004D4068
:100920000000144000B585B00121802003F0B6F826
:100930000120ADF8100003208DF8120010208DF872
:10094000130004A94048FFF746FE01213E48FFF787
:10095000CDFE0220ADF8100004208DF8130004A98C
:100960003948FFF738FE02213748FFF7BFFE042061
:10097000ADF8100003208DF8120010208DF8130040
:1009800004A93148FFF727FE04212F48FFF7AEFEE8
:100990000820ADF8100004208DF8130004A92A489F
:1009A000FFF719FE08212848FFF7A0FE1020ADF838
:1009B000100003208DF8120010208DF8130004A9F8
:1009C0002148FFF708FE10211F48FFF78FFE202067
:1009D000ADF8100004208DF8130004A91A48FFF7A1
:1009E000FAFD20211848FFF781FE0121022003F0C3
:1009F00045F840F2E730ADF804004720ADF80000BC
:100A00000020ADF80600ADF8020069460F4803F07B
:100A1000BDF9012211460D4803F0ADF91D208DF8F6
:100A20000C0000208DF80D0003208DF80E00012031
:100A30008DF80F0003A802F0BBFF0021034803F06C
:100A40007AF905B000BD0000001C01400004004020
:100A500070B50446002609480588408845430021B2
:100A6000084602F0BBFD02F067FF00BF02E0044849
:100A70000480761CAE42FAD370BD00000C01002049
:100A80000008006C10B5044649488471002C45D11B
:100A9000F020474908804FF4A070488008468088BD
:100AA00045F21051884210D14FF43050404908812E
:100AB0004FF4285048814FF42C5088814FF4F07047
:100AC00008804FF4487048801AE03948808841F621
:100AD000631188420DD12C20354908812B20488193
:100AE0002A2088814FF4F07008804FF448704880C5
:100AF00006E02C202E4908812A2048812B2088815D
:100B00002B48808845F2103188424CD14FF4A070B8
:100B1000274908804FF4F070488044E04FF4A070FB
:100B200023490880F02048800846808845F210510B
:100B3000884210D14FF430501D4908814FF428509D
:100B400048814FF42C5088814FF4487008804FF44E
:100B5000F07048801AE01648808841F66311884298
:100B60000DD12C20124908812A2048812B20888110
:100B70004FF4487008804FF4F070488006E02C2055
:100B80000B4908812A2048812B20888108488088C9
:100B900045F21031884206D14FF4F07004490880C4
:100BA0004FF4A0704880002002F0FEFB10BD000052
:100BB0000C01002010B503460C463848808845F2E9
:100BC0001051884220D13549488902F0AFFE1812F1
:100BD00002F0A6FE31494989491C88B202F0A6FEFE
:100BE000D8B202F09DFE2D49888902F09FFE2012A6
:100BF00002F096FE29498989491C88B202F096FEC6
:100C0000E0B202F08DFE42E02448808841F6631194
:100C1000884228D12148807920B920480088401E88
:100C2000C01A83B21D49488902F080FE181202F0F2
:100C300077FED8B202F074FE181202F071FED8B23C
:100C400002F06EFE1549888902F070FE201202F053
:100C500067FEE0B202F064FE201202F061FEE0B234
:100C600002F05EFE13E00D49488902F05FFE1812A3
:100C700002F056FED8B202F053FE0849888902F00D
:100C800055FE201202F04CFEE0B202F049FE03488D
:100C9000008903490880881C028010BD0C010020D7
:100CA000FE07006C00B59FB00121080202F0D6FEDD
:100CB00001214FF4B47002F0F1FE0120ADF878008C
:100CC00010208DF87B0003208DF87A001EA9FE48C5
:100CD000FFF781FC4CF23370ADF8780018208DF8E6
:100CE0007B0003208DF87A001EA9F848FFF773FCFB
:100CF0004FF68070ADF8780018208DF87B00032047
:100D00008DF87A001EA9F248FFF765FC41F2010058
:100D1000ADF8780018208DF87B0003208DF87A005C
:100D20001EA9EC48FFF757FC01200890002009900D
:100D30000F200A9000200B900C900D900E900190C7
:100D400002900320039000200490059006900790E5
:100D500006200F900020109011901020129000207B
:100D6000139015901490169017904FF4805018908F
:100D7000002019904FF480401A9000201B9008A882
:100D80001C9001A81D900FA8FFF7B2FB01210620BF
:100D9000FFF794FB322003F083F9D32002F0C6FD65
:100DA00002F0CEFACC49888002F0CAFACA4988809B
:100DB00002F0C6FAC8498880084680884FF6FF715D
:100DC00001EA0020C449888002F0BAFAC249898841
:100DD0000843C14988800846808849F241318842E9
:100DE0007DD0042002F0A2FD02F0AAFABA49888060
:100DF00002F0A6FAB849888002F0A2FAB6498880C3
:100E0000084680884FF6FF7101EA0020B2498880C9
:100E100002F096FAB04989880843AF4988800846AD
:100E2000808848F25251884203D147F28970AA491A
:100E30008880A948808847F289718842D0D0D42020
:100E400002F074FD02F07CFAA349888002F078FA7F
:100E5000A149888002F074FA9F49888008468088FA
:100E60004FF6FF7101EA00209B49888002F068FA82
:100E7000994989880843984988800846808845F2BE
:100E80001031884262D055214FF4704002F05EFD6F
:100E9000AA214FF2010002F059FD52214FF2020047
:100EA00002F054FD08214FF2030002F04FFD012132
:100EB0004FF2040002F04AFD4FF4454002F036FDC7
:100EC00002F03EFA84498880084680884FF6FF7118
:100ED00001EA0020804988804CF2015000E035E0B2
:100EE00002F024FD02F02CFA7B49898808437A49F4
:100EF0008880052003F0D4F87748808845F21051A7
:100F0000884223D0A12002F011FD02F019FA7249A3
:100F1000888002F015FA70498880084680884FF66C
:100F2000FF7101EA00206C49888002F009FA6A49E1
:100F300089880843684988800846808845F261713D
:100F4000884203D141F663106349888062488188F2
:100F500062A0FFF761F96048808849F24131884218
:100F60007ED1CF2002F0E2FC002002F0D9FCC120AB
:100F700002F0D6FC302002F0D3FCED2002F0D6FCCB
:100F8000642002F0CDFC032002F0CAFC122002F023
:100F9000C7FC812002F0C4FCE82002F0C7FC8520D9
:100FA00002F0BEFC102002F0BBFC7A2002F0B8FC7C
:100FB000CB2002F0BBFC392002F0B2FC2C2002F066
:100FC000AFFC002002F0ACFC342002F0A9FC0220AF
:100FD00002F0A6FCF72002F0A9FC202002F0A0FC01
:100FE000EA2002F0A3FC002002F09AFC002002F0AC
:100FF00097FCC02002F09AFC1B2002F091FCC1205B
:1010000002F094FC012002F08BFCC52002F08EFC63
:10101000302002F085FC302002F082FCC72002F074
:1010200085FCB72002F07CFC362002F07FFC4820D3
:1010300002F076FC3A2002F079FC552002F070FCB8
:10104000B12002F073FC002002F06AFC1A2002F0CA
:1010500067FCB62002F06AFC0A2002F061FC00E0A6
:10106000ABE0A22002F05CFCF22002F05FFC00206A
:1010700002F056FC262002F059FC012002F050FC40
:10108000E02002F053FC0F2002F04AFC2A2002F07C
:1010900047FC282002F044FC082002F041FC0E200E
:1010A00002F03EFC082002F03BFC542002F038FC29
:1010B000A92002F035FC432002F032FC0A2002F0A5
:1010C0002FFC0F2012E00000000C01400014014032
:1010D00000180140002001400C010020204C434436
:1010E0002049443A25780D0A0000000002F018FC5F
:1010F000002002F015FC002002F012FC002002F09B
:101100000FFC002002F00CFCE12002F00FFC00209C
:1011100002F006FC152002F003FC172002F000FC90
:10112000072002F0FDFB112002F0FAFB062002F07E
:10113000F7FB2B2002F0F4FB562002F0F1FB3C20E1
:1011400002F0EEFB052002F0EBFB102002F0E8FBC2
:101150000F2002F0E5FB3F2002F0E2FB3F2002F00F
:10116000DFFB0F2002F0DCFB2B2002F0DFFB002076
:1011700002F0D6FB002002F0D3FB012002F0D0FBEE
:101180003F2002F0CDFB2A2002F0D0FB002002F02D
:10119000C7FB002002F0C4FB002002F0C1FBEF20DF
:1011A00002F0BEFB112002F0C1FB782002F078FFB4
:1011B000292002F0BBFB02F0A6B8FE48808847F267
:1011C000897188427ED1112002F0B0FB782002F0B4
:1011D00067FF362002F0AAFB002002F0A1FB3A20B4
:1011E00002F0A4FB052002F09BFBB22002F09EFB64
:1011F0000C2002F095FB0C2002F092FB002002F084
:101200008FFB332002F08CFB332002F089FBB720E8
:1012100002F08CFB352002F083FBBB2002F086FB42
:10122000322002F07DFBC02002F080FB0C2002F097
:1012300077FBC22002F07AFB012002F071FBC32091
:1012400002F074FB102002F06BFBC42002F06EFB76
:10125000202002F065FBC62002F068FB0F2002F0A0
:101260005FFBD02002F062FBA42002F059FBA1201A
:1012700002F056FBE02002F059FBD02002F050FBB8
:10128000002002F04DFB022002F04AFB072002F092
:1012900047FB0A2002F044FB282002F041FB3220E9
:1012A00002F03EFB442002F03BFB422002F038FB00
:1012B000062002F035FB0E2002F032FB122002F075
:1012C0002FFB00E054E0142002F02AFB172002F06C
:1012D00027FBE12002F02AFBD02002F021FB0020B6
:1012E00002F01EFB022002F01BFB072002F018FB9D
:1012F0000A2002F015FB282002F012FB312002F038
:101300000FFB542002F00CFB472002F009FB0E20DB
:1013100002F006FB1C2002F003FB172002F000FB8A
:101320001B2002F0FDFA1E2002F0FAFA2A2002F039
:10133000FDFA002002F0F4FA002002F0F1FA002099
:1013400002F0EEFAEF2002F0EBFA2B2002F0EEFAB8
:10135000002002F0E5FA002002F0E2FA012002F09B
:10136000DFFA3F2002F0DCFA292002F0DFFA22E760
:101370009048808845F21031884240F07C87ED200B
:1013800002F0D4FA012002F0CBFAFE2002F0C8FAF3
:10139000EE2002F0CBFADE2002F0C2FA212002F0A9
:1013A000BFFAF12002F0C2FA012002F0B9FADF2000
:1013B00002F0BCFA102002F0B3FAC42002F0B6FA30
:1013C0008F2002F0ADFAC62002F0B0FA002002F041
:1013D000A7FAE22002F0A4FAE22002F0A1FAE22049
:1013E00002F09EFABF2002F0A1FAAA2002F098FAB9
:1013F000B02002F09BFA0D2002F092FA002002F0D9
:101400008FFA0D2002F08CFA002002F089FA1120E8
:1014100002F086FA002002F083FA192002F080FA26
:10142000002002F07DFA212002F07AFA002002F07A
:1014300077FA2D2002F074FA002002F071FA3D20B4
:1014400002F06EFA002002F06BFA5D2002F068FAFA
:10145000002002F065FA5D2002F062FA002002F03E
:101460005FFAB12002F062FA802002F059FA0020FF
:1014700002F056FA8B2002F053FA002002F050FAE4
:10148000962002F04DFA002002F04AFAB22002F053
:101490004DFA002002F044FA002002F041FA022046
:1014A00002F03EFA002002F03BFA032002F038FA84
:1014B000002002F035FAB32002F038FA002002F0E2
:1014C0002FFA002002F02CFA002002F029FA002066
:1014D00002F026FA002002F023FA002002F020FA9F
:1014E000002002F01DFA002002F01AFA002002F09B
:1014F00017FA002002F014FA002002F011FA00207E
:1015000002F00EFA002002F00BFA002002F008FAB6
:10151000002002F005FA002002F002FA002002F09A
:10152000FFF9002002F0FCF9002002F0F9F9002098
:1015300002F0F6F9002002F0F3F9002002F0F0F9D1
:10154000002002F0EDF9002002F0EAF9B42002F0E8
:10155000EDF98B2002F0E4F9002002F0E1F9962089
:1015600002F0DEF9002002F0DBF9A12002F0D8F948
:10157000002002F0D5F9B52002F0D8F9022002F0DF
:10158000CFF9002002F0CCF9032002F0C9F90020C5
:1015900002F0C6F9042002F0C3F9002002F0C0F9FD
:1015A000B62002F0C3F9002002F0BAF9002002F0E0
:1015B000B7F901E00C010020B72002F0B7F90020D4
:1015C00002F0AEF9002002F0ABF93F2002F0A8F9DA
:1015D000002002F0A5F95E2002F0A2F9002002F03E
:1015E0009FF9642002F09CF9002002F099F98C2008
:1015F00002F096F9002002F093F9AC2002F090F985
:10160000002002F08DF9DC2002F08AF9002002F0BF
:1016100087F9702002F084F9002002F081F990200F
:1016200002F07EF9002002F07BF9EB2002F078F95D
:10163000002002F075F9DC2002F072F9002002F0BF
:101640006FF9B82002F072F9002002F069F9002069
:1016500002F066F9002002F063F9002002F060F960
:10166000002002F05DF9002002F05AF9002002F09B
:1016700057F9002002F054F9BA2002F057F924205B
:1016800002F04EF9002002F04BF9002002F048F978
:10169000002002F045F9C12002F048F9202002F0B4
:1016A0003FF9002002F03CF9542002F039F9002003
:1016B00002F036F9FF2002F033F9002002F030F991
:1016C000C22002F033F90A2002F02AF9002002F0C9
:1016D00027F9042002F024F9002002F021F9C320A8
:1016E00002F024F93C2002F01BF9002002F018F966
:1016F0003A2002F015F9002002F012F9392002F028
:101700000FF9002002F00CF9372002F009F900204F
:1017100002F006F93C2002F003F9002002F000F983
:10172000362002F0FDF8002002F0FAF8322002F034
:10173000F7F8002002F0F4F82F2002F0F1F8002072
:1017400002F0EEF82C2002F0EBF8002002F0E8F8AE
:10175000292002F0E5F8002002F0E2F8262002F04D
:10176000DFF8002002F0DCF8242002F0D9F8002095
:1017700002F0D6F8242002F0D3F8002002F0D0F8CE
:10178000232002F0CDF8002002F0CAF83C2002F03D
:10179000C7F8002002F0C4F8362002F0C1F800209B
:1017A00002F0BEF8322002F0BBF8002002F0B8F8D8
:1017B0002F2002F0B5F8002002F0B2F82C2002F041
:1017C000AFF8002002F0ACF8292002F0A9F80020C0
:1017D00002F0A6F8262002F0A3F8002002F0A0F8FC
:1017E000242002F09DF8002002F09AF8242002F054
:1017F00097F8002002F094F8232002F091F80020DE
:1018000002F08EF8C42002F091F8622002F088F80D
:10181000002002F085F8052002F082F8002002F096
:101820007FF8842002F07CF8002002F079F8F020A4
:1018300002F076F8002002F073F8182002F070F839
:10184000002002F06DF8A42002F06AF8002002F0F7
:1018500067F8182002F064F8002002F061F85020C8
:1018600002F05EF8002002F05BF80C2002F058F85D
:10187000002002F055F8172002F052F8002002F084
:101880004FF8952002F04CF8002002F049F8F320C0
:1018900002F046F8002002F043F8E62002F040F89B
:1018A000002002F03DF8C52002F040F8322002F09E
:1018B00037F8002002F034F8442002F031F800201C
:1018C00002F02EF8652002F02BF8002002F028F834
:1018D000762002F025F8002002F022F8882002F09D
:1018E0001FF8002002F01CF8C62002F01FF820208C
:1018F00002F016F8002002F013F8172002F010F89A
:10190000002002F00DF8012002F00AF8002002F099
:1019100007F8C72002F00AF8002002F001F80020C2
:1019200001F0FEFF002001F0FBFF002001F0F8FFB6
:10193000C82001F0FBFF002001F0F2FF002001F0C1
:10194000EFFF002001F0ECFF002001F0E9FFC920CB
:1019500001F0ECFF002001F0E3FF002001F0E0FFC8
:10196000002001F0DDFF002001F0DAFF002001F08F
:10197000D7FF002001F0D4FF002001F0D1FF0020AC
:1019800001F0CEFF002001F0CBFF002001F0C8FFE6
:10199000002001F0C5FF002001F0C2FF002001F08F
:1019A000BFFF002001F0BCFF002001F0B9FF0020C4
:1019B00001F0B6FFE02001F0B9FF162001F0B0FF02
:1019C000002001F0ADFF1C2001F0AAFF002001F073
:1019D000A7FF212001F0A4FF002001F0A1FF362085
:1019E00001F09EFF002001F09BFF462001F098FFD0
:1019F000002001F095FF522001F092FF002001F03D
:101A00008FFF642001F08CFF002001F089FF7A2015
:101A100001F086FF002001F083FF8B2001F080FFA2
:101A2000002001F07DFF992001F07AFF002001F0F5
:101A300077FFA82001F074FF002001F071FFB920AA
:101A400001F06EFF002001F06BFFC42001F068FF81
:101A5000002001F065FFCA2001F062FF002001F0C4
:101A60005FFFD22001F05CFF002001F059FFD92078
:101A700001F056FF002001F053FFE02001F050FF7D
:101A8000002001F04DFFF32001F04AFF002001F09B
:101A900047FFE12001F04AFF162001F041FF00203E
:101AA00001F03EFF1C2001F03BFF002001F038FF59
:101AB000222001F035FF002001F032FF362001F036
:101AC0002FFF002001F02CFF452001F029FF00200E
:101AD00001F026FF522001F023FF002001F020FF3B
:101AE000642001F01DFF002001F01AFF7A2001F0B0
:101AF00017FF002001F014FF8B2001F011FF0020E0
:101B000001F00EFF992001F00BFF002001F008FF0B
:101B1000A82001F005FF002001F002FFB92001F02C
:101B2000FFFE002001F0FCFEC42001F0F9FE0020C1
:101B300001F0F6FECA2001F0F3FE002001F0F0FEF5
:101B4000D22001F0EDFE002001F0EAFED82001F0E5
:101B5000E7FE002001F0E4FEE02001F0E1FE0020BD
:101B600001F0DEFEF32001F0DBFE002001F0D8FEE4
:101B7000E22001F0DBFE052001F0D2FE002001F0A2
:101B8000CFFE0B2001F0CCFE002001F0C9FE1B208F
:101B900001F0C6FE002001F0C3FE342001F0C0FEBB
:101BA000002001F0BDFE442001F0BAFE002001F04B
:101BB000B7FE4F2001F0B4FE002001F0B1FE61201D
:101BC00001F0AEFE002001F0ABFE792001F0A8FE8E
:101BD000002001F0A5FE882001F0A2FE002001F007
:101BE0009FFE972001F09CFE002001F099FEA620A8
:101BF00001F096FE002001F093FEB72001F090FE68
:101C0000002001F08DFEC22001F08AFE002001F0CC
:101C100087FEC72001F084FE002001F081FED12064
:101C200001F07EFE002001F07BFED62001F078FE60
:101C3000002001F075FEDD2001F072FE002001F0B1
:101C40006FFEF32001F06CFE002001F069FEE3203E
:101C500001F06CFE052001F063FE002001F060FE43
:101C60000A2001F05DFE002001F05AFE1C2001F068
:101C700057FE002001F054FE332001F051FE0020F9
:101C800001F04EFE442001F04BFE002001F048FE22
:101C9000502001F045FE002001F042FE622001F0DC
:101CA0003FFE002001F03CFE782001F039FE0020CC
:101CB00001F036FE882001F033FE002001F030FEF6
:101CC000972001F02DFE002001F02AFEA62001F051
:101CD00027FE002001F024FEB72001F021FE0020A5
:101CE00001F01EFEC22001F01BFE002001F018FED4
:101CF000C72001F015FE002001F012FED12001F0F6
:101D00000FFE002001F00CFED52001F009FE00209E
:101D100001F006FEDD2001F003FE002001F000FED0
:101D2000F32001F0FDFD002001F0FAFDE42001F0B8
:101D3000FDFD012001F0F4FD002001F0F1FD012086
:101D400001F0EEFD002001F0EBFD022001F0E8FDC6
:101D5000002001F0E5FD2A2001F0E2FD002001F065
:101D6000DFFD3C2001F0DCFD002001F0D9FD4B201F
:101D700001F0D6FD002001F0D3FD5D2001F0D0FD83
:101D8000002001F0CDFD742001F0CAFD002001F01B
:101D9000C7FD842001F0C4FD002001F0C1FD9320A7
:101DA00001F0BEFD002001F0BBFDA22001F0B8FD56
:101DB000002001F0B5FDB32001F0B2FD002001F0DC
:101DC000AFFDBE2001F0ACFD002001F0A9FDC42054
:101DD00001F0A6FD002001F0A3FDCD2001F0A0FD43
:101DE000002001F09DFDD32001F09AFD002001F0BC
:101DF00097FDDD2001F094FD002001F091FDF3201E
:101E000001F08EFD002001F08BFDE52001F08EFD3C
:101E1000002001F085FD002001F082FD002001F08E
:101E20007FFD002001F07CFD022001F079FD002003
:101E300001F076FD292001F073FD002001F070FD16
:101E40003C2001F06DFD002001F06AFD4B2001F007
:101E500067FD002001F064FD5D2001F061FD0020C0
:101E600001F05EFD742001F05BFD002001F058FDE3
:101E7000842001F055FD002001F052FD932001F077
:101E80004FFD002001F04CFDA22001F049FD002093
:101E900001F046FDB32001F043FD002001F040FDBC
:101EA000BE2001F03DFD002001F03AFDC42001F00C
:101EB00037FD002001F034FDCD2001F031FD002080
:101EC00001F02EFDD32001F02BFD002001F028FDB4
:101ED000DC2001F025FD002001F022FDF32001F0BF
:101EE0001FFD002001F01CFDE62001F01FFD112068
:101EF00001F016FD002001F013FD342001F010FD6B
:101F0000002001F00DFD562001F00AFD002001F037
:101F100007FD762001F004FD002001F001FD77208F
:101F200001F0FEFC002001F0FBFC662001F0F8FC53
:101F3000002001F0F5FC882001F0F2FC002001F007
:101F4000EFFC992001F0ECFC002001F0E9FCBB2043
:101F500001F0E6FC002001F0E3FC992001F0E0FC38
:101F6000002001F0DDFC662001F0DAFC002001F029
:101F7000D7FC552001F0D4FC002001F0D1FC552005
:101F800001F0CEFC002001F0CBFC452001F0C8FCA4
:101F9000002001F0C5FC432001F0C2FC002001F04C
:101FA000BFFC442001F0BCFC002001F0B9FCE7209C
:101FB00001F0BCFC322001F0B3FC002001F0B0FCC9
:101FC000552001F0ADFC002001F0AAFC762001F0C4
:101FD000A7FC002001F0A4FC662001F0A1FC002079
:101FE00001F09EFC672001F09BFC002001F098FCB2
:101FF000672001F095FC002001F092FC872001F0A1
:102000008FFC002001F08CFC992001F089FC00205D
:1020100001F086FCBB2001F083FC002001F080FC75
:10202000992001F07DFC002001F07AFC772001F07E
:1020300077FC002001F074FC442001F071FC0020CA
:1020400001F06EFC562001F06BFC002001F068FCF2
:10205000232001F065FC002001F062FC332001F038
:102060005FFC002001F05CFC452001F059FC0020E1
:1020700001F056FCE82001F059FC002001F050FC72
:10208000002001F04DFC992001F04AFC002001F0F5
:1020900047FC872001F044FC002001F041FC88202F
:1020A00001F03EFC002001F03BFC772001F038FC01
:1020B000002001F035FC662001F032FC002001F028
:1020C0002FFC882001F02CFC002001F029FCAA2024
:1020D00001F026FC002001F023FCBB2001F020FCD5
:1020E000002001F01DFC992001F01AFC002001F0F5
:1020F00017FC662001F014FC002001F011FC5520B3
:1021000001F00EFC002001F00BFC552001F008FC52
:10211000002001F005FC442001F002FC002001F049
:10212000FFFB442001F0FCFB002001F0F9FB5520EF
:1021300001F0F6FB002001F0F3FBE92001F0F6FBD3
:10214000AA2001F0EDFB002001F0EAFB002001F0E5
:10215000E7FB002001F0E4FB002001F0E7FBAA20F0
:1021600001F0DEFBCF2001F0E1FB002001F0D8FB05
:10217000002001F0D5FB002001F0D2FB002001F08F
:10218000CFFB002001F0CCFB002001F0C9FB0020B8
:1021900001F0C6FB002001F0C3FB002001F0C0FBF2
:1021A000002001F0BDFB002001F0BAFB002001F08F
:1021B000B7FB002001F0B4FB002001F0B1FB0020D0
:1021C00001F0AEFB002001F0ABFB002001F0A8FB0A
:1021D000F02001F0ABFB002001F0A2FB502001F049
:1021E0009FFB002001F09CFB002001F099FB0020E8
:1021F00001F096FBF32001F099FB002001F090FB29
:10220000F92001F093FB062001F08AFB102001F079
:1022100087FB292001F084FB002001F081FB3A209C
:1022200001F084FB552001F07BFB112001F07EFBC7
:10223000642001F035FF292001F078FB352001F002
:1022400075FB002001F06CFB512001F06FFBFF20BB
:1022500001F066FB532001F069FB2C2001F060FBCC
:10226000552001F063FB822001F05AFB2C2001F085
:102270005DFB01F048B8FE48808845F21051884265
:102280007ED155214FF4704001F060FBAA214FF23E
:10229000010001F05BFB52214FF2020001F056FBFE
:1022A00008214FF2030001F051FB01214FF204001D
:1022B00001F04CFB0D214FF4304001F047FB0D21A4
:1022C0004BF2010001F042FB0D214BF2020001F044
:1022D0003DFB34214FF4364001F038FB34214BF202
:1022E000016001F033FB34214BF2026001F02EFB60
:1022F0000D214FF4314001F029FB0D214BF201106B
:1023000001F024FB0D214BF2021001F01FFB3421E0
:102310004FF4374001F01AFB34214BF2017001F009
:1023200015FB34214BF2027001F010FB00214FF439
:10233000324001F00BFB00214BF2012001F006FBC3
:1023400000214BF2022001F001FB24214FF4384020
:1023500001F0FCFA24214BF6010001F0F7FA2421E8
:102360004BF6020001F0F2FA01214FF43F4001F078
:10237000EDFA0F214FF4334001F0E8FA0F2100E0AD
:10238000FEE34BF2013001F0E1FA0F214BF2023093
:1023900001F0DCFA34214FF4394001F0D7FA34214E
:1023A0004BF6011001F0D2FA34214BF6021001F085
:1023B000CDFA08214FF4354001F0C8FA08214BF25C
:1023C000015001F0C3FA08214BF2025001F0BEFAAD
:1023D00003214FF4424001F0B9FA24214FF43A406E
:1023E00001F0B4FA24214BF6012001F0AFFA2421C8
:1023F0004BF6022001F0AAFA00214FF43C4001F014
:10240000A5FA78214BF6014001F0A0FA00214BF625
:10241000024001F09BFA00214FF43D4001F096FA92
:1024200078214BF6015001F091FA00214BF6025051
:1024300001F08CFA00214FF43E4001F087FA64214C
:102440004BF6016001F082FA00214FF4514001F097
:102450007DFA33214DF2011001F078FA00214DF29E
:10246000021001F073FA34214DF2031001F06EFAFC
:1024700000214DF2041001F069FA3A214DF20510E5
:1024800001F064FA00214DF2061001F05FFA4A21D2
:102490004DF2071001F05AFA00214DF2081001F038
:1024A00055FA5C214DF2091001F050FA00214DF26D
:1024B0000A1001F04BFA81214DF20B1001F046FA9F
:1024C00000214DF20C1001F041FAA6214DF20D1041
:1024D00001F03CFA00214DF20E1001F037FAE5212F
:1024E0004DF20F1001F032FA01214DF2101001F0FF
:1024F0002DFA13214DF2111001F028FA01214DF2AD
:10250000121001F023FA54214DF2131001F01EFABB
:1025100001214DF2141001F019FA82214DF215102B
:1025200001F014FA01214DF2161001F00FFACA2140
:102530004DF2171001F00AFA02214DF2181001F0C5
:1025400005FA00214DF2191001F000FA02214DF2B6
:102550001A1001F0FBF901214DF21B1001F0F6F900
:1025600002214DF21C1001F0F1F934214DF21D1041
:1025700001F0ECF902214DF21E1001F0E7F967219C
:102580004DF21F1001F0E2F902214DF2201001F08E
:10259000DDF984214DF2211001F0D8F902214DF22C
:1025A000221001F0D3F9A4214DF2231001F0CEF94D
:1025B00002214DF2241001F0C9F9B7214DF2251086
:1025C00001F0C4F902214DF2261001F0BFF9CF212C
:1025D0004DF2271001F0BAF902214DF2281001F056
:1025E000B5F9DE214DF2291001F0B0F902214DF2CA
:1025F0002A1001F0ABF9F2214DF22B1001F0A6F9EF
:1026000002214DF22C1001F0A1F9FE214DF22D1006
:1026100001F09CF903214DF22E1001F097F91021E1
:102620004DF22F1001F092F903214DF2301001F01C
:102630008DF933214DF2311001F088F903214DF26B
:10264000321001F083F96D214DF2331001F07EF963
:1026500000214FF4524001F079F933214DF201206D
:1026600001F074F900214DF2022001F06FF901E050
:102670000C01002034214DF2032001F067F9002104
:102680004DF2042001F062F93A214DF2052001F0EB
:102690005DF900214DF2062001F058F94A214DF272
:1026A000072001F053F900214DF2082001F04EF906
:1026B0005C214DF2092001F049F900214DF20A2078
:1026C00001F044F981214DF20B2001F03FF9002186
:1026D0004DF20C2001F03AF9A6214DF20D2001F047
:1026E00035F900214DF20E2001F030F9E5214DF2CF
:1026F0000F2001F02BF901214DF2102001F026F9F5
:1027000013214DF2112001F021F901214DF2122087
:1027100001F01CF954214DF2132001F017F90121A9
:102720004DF2142001F012F982214DF2152001F032
:102730000DF901214DF2162001F008F9CA214DF2E0
:10274000172001F003F902214DF2182001F0FEF8E4
:1027500000214DF2192001F0F9F802214DF21A2062
:1027600001F0F4F801214DF21B2001F0EFF80221F5
:102770004DF21C2001F0EAF834214DF21D2001F049
:10278000E5F802214DF21E2001F0E0F867214DF23C
:102790001F2001F0DBF802214DF2202001F0D6F8D5
:1027A00084214DF2212001F0D1F802214DF22220A6
:1027B00001F0CCF8A4214DF2232001F0C7F802214A
:1027C0004DF2242001F0C2F8B7214DF2252001F08E
:1027D000BDF802214DF2262001F0B8F8CF214DF2CC
:1027E000272001F0B3F802214DF2282001F0AEF8C5
:1027F000DE214DF2292001F0A9F802214DF22A2014
:1028000001F0A4F8F2214DF22B2001F09FF80221F3
:102810004DF22C2001F09AF8FE214DF22D2001F00E
:1028200095F803214DF22E2001F090F810214DF281
:102830002F2001F08BF803214DF2302001F086F8B3
:1028400033214DF2312001F081F803214DF2322085
:1028500001F07CF86D214DF2332001F077F8002172
:102860004FF4534001F072F833214DF2013001F082
:102870006DF800214DF2023001F068F834214DF27C
:10288000033001F063F800214DF2043001F05EF8EE
:102890003A214DF2053001F059F800214DF2063091
:1028A00001F054F84A214DF2073001F04FF80021B1
:1028B0004DF2083001F04AF85C214DF2093001F088
:1028C00045F800214DF20A3001F040F881214DF227
:1028D0000B3001F03BF800214DF20C3001F036F8DE
:1028E000A6214DF20D3001F031F800214DF20E30ED
:1028F00001F02CF8E5214DF20F3001F027F801210D
:102900004DF2103001F022F813214DF2113001F098
:102910001DF801214DF2123001F018F854214DF24A
:10292000133001F013F801214DF2143001F00EF8CC
:1029300082214DF2153001F009F801214DF21630D7
:1029400001F004F8CA214DF2173000F0FFFF022118
:102950004DF2183000F0FAFF00214DF2193000F06E
:10296000F5FF02214DF21A3000F0F0FF01214DF287
:102970001B3000F0EBFF02214DF21C3000F0E6FFAF
:1029800034214DF21D3000F0E1FF02214DF21E30E6
:1029900000F0DCFF67214DF21F3000F0D7FF02216D
:1029A0004DF2203000F0D2FF84214DF2213000F0B2
:1029B000CDFF02214DF2223000F0C8FFA4214DF2DC
:1029C000233000F0C3FF02214DF2243000F0BEFF9F
:1029D000B7214DF2253000F0B9FF02214DF226302B
:1029E00000F0B4FFCF214DF2273000F0AFFF0221FD
:1029F0004DF2283000F0AAFFDE214DF2293000F020
:102A0000A5FF02214DF22A3000F0A0FFF2214DF285
:102A10002B3000F09BFF02214DF22C3000F096FF8E
:102A2000FE214DF22D3000F091FF03214DF22E30AA
:102A300000F08CFF10214DF22F3000F087FF0321B2
:102A40004DF2303000F082FF33214DF2313000F092
:102A50007DFF03214DF2323000F078FF6D214DF201
:102A6000333000F073FF00214FF4544000F06EFF4C
:102A700033214DF2014000F069FF00214DF2024088
:102A800000F064FF34214DF2034000F05FFF0021AD
:102A90004DF2044000F05AFF3A214DF2054000F09B
:102AA00055FF00214DF2064000F050FF4A214DF243
:102AB000074000F04BFF00214DF2084000F046FFB8
:102AC0005C214DF2094000F041FF00214DF20A4027
:102AD00000F03CFF81214DF20B4000F037FF002158
:102AE0004DF20C4000F032FFA6214DF20D4000F0F7
:102AF0002DFF00214DF20E4000F028FFE5214DF2A0
:102B00000F4000F023FF01214DF2104000F01EFFA6
:102B100013214DF2114000F019FF01214DF2124036
:102B200000F014FF54214DF2134000F00FFF01217B
:102B30004DF2144000F00AFF82214DF2154000F0E2
:102B400005FF01214DF2164000F000FFCA214DF2B1
:102B5000174000F0FBFE02214DF2184000F0F6FE97
:102B600000214DF2194000F0F1FE02214DF21A4011
:102B700000F0ECFE01214DF21B4000F0E7FE00E00A
:102B800003E302214DF21C4000F0E0FE34214DF23F
:102B90001D4000F0DBFE02214DF21E4000F0D6FE8B
:102BA00067214DF21F4000F0D1FE02214DF220407E
:102BB00000F0CCFE84214DF2214000F0C7FE02213E
:102BC0004DF2224000F0C2FEA4214DF2234000F05D
:102BD000BDFE02214DF2244000F0B8FEB7214DF2B7
:102BE000254000F0B3FE02214DF2264000F0AEFE7B
:102BF000CF214DF2274000F0A9FE02214DF22840DE
:102C000000F0A4FEDE214DF2294000F09FFE0221DB
:102C10004DF22A4000F09AFEF2214DF22B4000F0D6
:102C200095FE02214DF22C4000F090FEFE214DF267
:102C30002D4000F08BFE03214DF22E4000F086FE69
:102C400010214DF22F4000F081FE03214DF2304063
:102C500000F07CFE33214DF2314000F077FE03217D
:102C60004DF2324000F072FE6D214DF2334000F023
:102C70006DFE00214FF4554000F068FE33214DF207
:102C8000015000F063FE00214DF2025000F05EFEA4
:102C900034214DF2035000F059FE00214DF2045052
:102CA00000F054FE3A214DF2055000F04FFE002195
:102CB0004DF2065000F04AFE4A214DF2075000F056
:102CC00045FE00214DF2085000F040FE5C214DF21F
:102CD000095000F03BFE00214DF20A5000F036FE94
:102CE00081214DF20B5000F031FE00214DF20C50CD
:102CF00000F02CFEA6214DF20D5000F027FE002121
:102D00004DF20E5000F022FEE5214DF20F5000F082
:102D10001DFE01214DF2105000F018FE13214DF25E
:102D2000115000F013FE01214DF2125000F00EFE82
:102D300054214DF2135000F009FE01214DF21450C0
:102D400000F004FE82214DF2155000F0FFFD01213C
:102D50004DF2165000F0FAFDCA214DF2175000F066
:102D6000F5FD02214DF2185000F0F0FD00214DF26A
:102D7000195000F0EBFD02214DF21A5000F0E6FD73
:102D800001214DF21B5000F0E1FD02214DF21C50DB
:102D900000F0DCFD34214DF21D5000F0D7FD022182
:102DA0004DF21E5000F0D2FD67214DF21F5000F091
:102DB000CDFD02214DF2205000F0C8FD84214DF2DE
:102DC000215000F0C3FD02214DF2225000F0BEFD63
:102DD000A4214DF2235000F0B9FD02214DF2245000
:102DE00000F0B4FDB7214DF2255000F0AFFD0221F7
:102DF0004DF2265000F0AAFDCF214DF2275000F0F1
:102E0000A5FD02214DF2285000F0A0FDDE214DF27B
:102E1000295000F09BFD02214DF22A5000F096FD52
:102E2000F2214DF22B5000F091FD02214DF22C5079
:102E300000F08CFDFE214DF22D5000F087FD0321A6
:102E40004DF22E5000F082FD10214DF22F5000F077
:102E50007DFD03214DF2305000F078FD33214DF21D
:102E6000315000F073FD03214DF2325000F06EFD41
:102E70006D214DF2335000F069FD00214FF45640B2
:102E800000F064FD33214DF2016000F05FFD002190
:102E90004DF2026000F05AFD34214DF2036000F063
:102EA00055FD00214DF2046000F050FD3A214DF235
:102EB000056000F04BFD00214DF2066000F046FD7C
:102EC0004A214DF2076000F041FD00214DF20860FB
:102ED00000F03CFD5C214DF2096000F037FD00215F
:102EE0004DF20A6000F032FD81214DF20B6000F0DE
:102EF0002DFD00214DF20C6000F028FDA6214DF2C1
:102F00000D6000F023FD00214DF20E6000F01EFD6B
:102F1000E5214DF20F6000F019FD01214DF2106026
:102F200000F014FD13214DF2116000F00FFD01219E
:102F30004DF2126000F00AFD54214DF2136000F0D2
:102F400005FD01214DF2146000F000FD82214DF2DB
:102F5000156000F0FBFC01214DF2166000F0F6FC5C
:102F6000CA214DF2176000F0F1FC02214DF2186009
:102F700000F0ECFC00214DF2196000F0E7FC0221AA
:102F80004DF21A6000F0E2FC01214DF21B6000F0EE
:102F9000DDFC02214DF21C6000F0D8FC34214DF222
:102FA0001D6000F0D3FC02214DF21E6000F0CEFC4B
:102FB00067214DF21F6000F0C9FC02214DF2206034
:102FC00000F0C4FC84214DF2216000F0BFFC02211E
:102FD0004DF2226000F0BAFCA4214DF2236000F013
:102FE000B5FC02214DF2246000F0B0FCB7214DF297
:102FF000256000F0ABFC02214DF2266000F0A6FC3B
:10300000CF214DF2276000F0A1FC02214DF2286093
:1030100000F09CFCDE214DF2296000F097FC0221BB
:103020004DF22A6000F092FCF2214DF22B6000F08C
:103030008DFC02214DF22C6000F088FCFE214DF247
:103040002D6000F083FC03214DF22E6000F07EFC29
:1030500010214DF22F6000F079FC03214DF2306019
:1030600000F074FC33214DF2316000F06FFC03215D
:103070004DF2326000F06AFC6D214DF2336000F0D9
:1030800065FC55214FF4704000F060FCAA214FF21E
:10309000010000F05BFC52214FF2020000F056FCF0
:1030A00008214FF2030000F051FC00214FF2040010
:1030B00000F04CFCCC214FF4314000F047FC0021E3
:1030C0004BF2011000F042FC05214FF4364000F0B5
:1030D0003DFC70214FF4374000F038FC70214BF27A
:1030E000017000F033FC01214FF4384000F02EFC59
:1030F00003214BF6010000F029FC03214BF60200EE
:1031000000F024FC03214BF6030000F01FFC022119
:103110004FF43C4000F01AFC00214BF6014000F057
:1031200015FC00214BF6024000F010FCD0214FF4BA
:10313000494000F00BFC02214CF6011000F006FCA7
:1031400050214CF6021000F001FC50214CF6031007
:1031500000F0FCFB50214CF6041000F0F7FB0021BE
:103160004FF4545000F0F2FB55214FF4685000F03A
:10317000EDFB4FF4885000F0D9FB782000F0B6FF4B
:103180004FF4245000F0D2FBBDE06548808841F642
:1031900063118842F8D1E22000F0C8FB1D2000F046
:1031A000BFFB022000F0BCFB042000F0B9FB642050
:1031B00000F09CFFE02000F0B9FB012000F0B0FB24
:1031C0000A2000F06DFFE02000F0B0FB032000F0CB
:1031D000A7FB0C2000F064FF012000F0A7FB0A20F1
:1031E00000F05EFFE62000F0A1FB2F2000F098FB2E
:1031F000FF2000F095FBFF2000F092FBB02000F0D4
:1032000095FB202000F08CFB002000F089FB0320C0
:1032100000F086FB40F21F3000F082FB012000F03E
:103220007FFB40F2DF1000F07BFB002000F078FB1A
:10323000B42000F07BFB042000F072FB40F21F4042
:1032400000F06EFB002000F06BFB2E2000F068FB0E
:10325000002000F065FB002000F062FB002000F081
:103260005FFB002000F05CFBB62000F05FFB02205B
:1032700000F056FB4FF4037000F052FB002000F00A
:103280004FFB172000F04CFB152000F049FB0020FD
:1032900000F046FB002000F043FBF02000F046FB6E
:1032A000032000F03DFB292000F040FBD02000F07F
:1032B0003DFB002000F034FBBE2000F037FB052072
:1032C00000F02EFBFE2000F02BFB012000F028FB7D
:1032D000002000F025FB002000F022FB002000F081
:1032E0001FFBB82000F022FB032000F019FB012097
:1032F00000F016FBBA2000F019FB012000F010FBD3
:10330000642000F027F80020FDF7BCFB01200549F0
:1033100008604FF6FF70FDF79BFB1FB000BD00007B
:103320000C0100208081214210B50246012000E0FE
:1033300050430B1EA1F10104E1B2F9D110BD000010
:1033400008B5034800880090BDF8000008BD0000E3
:103350000008006C2DE9F0470446BE2000F0E6FAB4
:10336000052000F0DDFA204601F03FFA07464FF055
:1033700066320C4B01F088FA054601F009FA1FFA93
:1033800080F9484600F0CCFA012000F0C9FAFF208D
:1033900000F0C6FA002000F0C3FA002000F0C0FAE6
:1033A000BDE8F0876666044070B504460023002639
:1033B00089488079012805D18748808841F66311C2
:1033C000884208D184488079F0B98348808841F6E2
:1033D0006311884218D1082C15D2DFE804F00406E6
:1033E000080A0C0E101206240DE007240BE004243A
:1033F00009E0052407E0012405E0002403E003249C
:1034000001E0022400BF00BF082C1CD2DFE804F05A
:103410000406090C0F12151800BF14E043F08003D6
:1034200011E043F040030EE043F0C0030BE043F033
:10343000200308E043F0600305E043F0A00302E04E
:1034400043F0E00300BF00BF6348808845F210519D
:10345000884202D14FF4585600E036265E488088F4
:1034600049F24131884205D05B48808847F2897132
:10347000884201D143F008031946304600F066FA4D
:103480005548808841F6631188421DD003F0200022
:1034900068B15148008850494988884214DA4E483A
:1034A000058840884C490880084645800CE04A4819
:1034B000008849494988884206DD47480588408890
:1034C00045490880084645804348808845F21051A8
:1034D000884252D14049488900F028FA002000F083
:1034E0001FFA3D494989491C88B200F01FFA0020A3
:1034F00000F016FA38494989891C88B200F016FA9A
:1035000035490988491EC1F30F2000F009FA3249F4
:103510004989C91C88B200F009FA2F490978491E67
:10352000C8B200F0FDF92C49888900F0FFF90020AD
:1035300000F0F6F928498989491C88B200F0F6F9AB
:10354000002000F0EDF924498989891C88B200F037
:10355000EDF921494988491EC1F30F2000F0E0F937
:103560001D498989C91C88B200F0E0F91A49897897
:10357000491EC8B200F0D4F92DE01749488900F07F
:10358000D5F9002000F0CCF9002000F0C9F912496B
:103590000988491EC1F30F2000F0C2F90E490978CD
:1035A000491EC8B200F0BCF90B49888900F0BEF989
:1035B000002000F0B5F9002000F0B2F90649498872
:1035C000491EC1F30F2000F0ABF903498978491E69
:1035D000C8B200F0A5F970BD0C01002000B502468C
:1035E0000B464548808841F66311884247D14248DE
:1035F0008079A8B940480088401E801A82B23E49AE
:10360000488900F093F9002000F08AF9002000F0CA
:1036100087F9101200F084F9D0B200F081F916E0B9
:103620003549488900F082F9101200F079F9D0B2DA
:1036300000F076F930490988491EC1F30F2000F0E7
:103640006FF92D490978491EC8B200F069F92A4975
:10365000888900F06BF9181200F062F9D8B200F016
:103660005FF925494988491EC1F30F2000F058F938
:1036700021498978491EC8B200F052F93AE01E4843
:10368000808845F21051884220D11B49488900F0BA
:103690004DF9101200F044F917494989491C88B2C4
:1036A00000F044F9D0B200F03BF91349888900F0EA
:1036B0003DF9181200F034F90F498989491C88B284
:1036C00000F034F9D8B200F02BF913E00A49488928
:1036D00000F02CF9101200F023F9D0B200F020F91C
:1036E0000549888900F022F9181200F019F9D8B2BA
:1036F00000F016F900BD00000C0100202DE9F84F84
:1037000080460E4617461C46B3462046E31704EB98
:103710005373DB1021464FEAE47C04EB5C7C4FEAF8
:10372000EC0CA4EBCC0CBCF1000F02D04FF0010C60
:1037300001E04FF0000C6344224604EBD27C4FEAD8
:103740006C0C03FB0CF3DBB20093A7F12000C7B2B3
:10375000002556E00C2C07D107EB47002B4901EB65
:10376000800010F8059013E0102C05D1284800EBDC
:10377000071010F805900BE0182C07D107EBC700D5
:10378000244901EB800010F8059001E0BDE8F88FB6
:103790004FF0000A2FE009F0800030B11E48028887
:1037A00031464046FDF706FA07E00A9828B91B485B
:1037B000028831464046FDF7FDF94FEA49604FEA7D
:1037C0001069701C86B216484088B04200DCDDE704
:1037D000A6EB0B00A0420AD15E4608F101001FFAD9
:1037E00080F80F480088404500DCCFE706E00AF18A
:1037F000010000F0FF0ABAF1080FCCDB00BF681C23
:10380000C5B200988542A5DB00BFBFE7F24D0008B6
:103810006652000856580008400000204200002070
:103820000C0100202DE9FF4F81B0074691461E464E
:103830000E9D4FF0000A002439E0301B401EC1B23B
:103840000A20FFF771FDB9FBF0F00A21B0FBF1F29D
:1038500001FB1208BAF1000F16D1701EA04213DD51
:10386000B8F1000F0ED10020AB4605EBDB7149101B
:1038700001FB0471009088B22B4620220299FFF7C9
:103880003DFF12E04FF0010A0020AB4605EBDB7173
:10389000491001FB0471009088B208F13001CAB2EE
:1038A0002B460299FFF72AFF00BF601CC4B2B44246
:1038B000C3DB05B0BDE8F08F2DE9F84704460D469F
:1038C00090469946DDE9096704F0FF0A08EB040019
:1038D0001FFA80F809EB05001FFA80F916E044454D
:1038E00002DB5446A81985B24D4500DB14E00020E8
:1038F00000903A78334629462046FFF7FFFE3046CF
:1039000006EBD07104EB61018CB27F1C38787E2805
:1039100002DC38782028E2DA00BFBDE8F887000032
:1039200001490880704700000008006C01490880C8
:1039300070470000FE07006C0248008902490880B9
:10394000704700000C010020FE07006C024A108046
:10395000921C118070470000FE07006C08B5012121
:10396000482000F09BF82020ADF8000010208DF8D2
:10397000030003208DF8020069460948FCF72BFE7E
:1039800020210748FCF7B4FE2020ADF8000069466E
:103990000448FCF720FE20210248FCF7A9FE08BDE0
:1039A000000C01400018014000BFFEE77047000016
:1039B00070B5002100230F22C47804B3154C24688D
:1039C00004F4E064C4F5E064210AC1F10403CA40D0
:1039D000447804FA03F184781440214309010E4C21
:1039E0000678A155047804F01F050124AC40057841
:1039F0006D11AD0005F1E025C5F8004109E004783E
:103A000004F01F050124AC40044D0678761145F8FA
:103A1000264070BD0CED00E000E400E080E100E035
:103A200002490143024A1160704700000000FA0594
:103A30000CED00E010B50021054800F0A5F90020CC
:103A4000044908800121024800F075F910BD00000A
:103A5000000400403E0000207047000029B1064AE3
:103A600052690243044B5A6104E0034A526982439B
:103A7000014B5A61704700000010024029B1064A0C
:103A8000D2690243044BDA6104E0034AD2698243FB
:103A9000014BDA61704700000010024029B1064A6C
:103AA00092690243044B9A6104E0034A926982439B
:103AB000014B9A61704700000010024030B50021B0
:103AC0000022002400232D4D6D6805F00C0121B16A
:103AD000042905D0082923D105E0294D056022E0FD
:103AE000274D05601FE0254D6D6805F47012234DCC
:103AF0006D6805F48034022505EB92421CB9214D16
:103B0000554305600BE01D4D6D6805F400351DB192
:103B10001C4D5543056002E0194D5543056002E018
:103B2000174D056000BF00BF144D6D6805F0F00132
:103B30000909154D6B5C0568DD4045600F4D6D68EA
:103B400005F4E061090A104D6B5C4568DD40856055
:103B50000A4D6D6805F46051C90A0B4D6B5C4568F0
:103B6000DD40C560054D6D6805F44041890B074D8A
:103B70006B5CC568B5FBF3F5056130BD0010024014
:103B800000127A0000093D002A0000203A000020BF
:103B9000704710B500F002F810BD00000CB5002011
:103BA000019000903348006840F48030314908604B
:103BB00000BF3048006800F4003000900198401CBD
:103BC0000190009818B90198B0F5A06FF1D129487B
:103BD000006800F4003010B10120009001E00020E6
:103BE00000900098012843D12348006840F010005D
:103BF000214908600846006820F003000860084674
:103C0000006840F0020008601A484068194948609E
:103C10000846406848600846406840F48060486054
:103C20000846406820F47C1048600846406840F42C
:103C3000E81048600846006840F08070086000BFE7
:103C40000C48006800F000700028F9D0094840686E
:103C500020F00300074948600846406840F0020031
:103C6000486000BF0348406800F00C000828F9D104
:103C70000CBD00000010024000200240042808D1C2
:103C80004FF0E021096941F004014FF0E022116199
:103C900007E04FF0E021096921F004014FF0E02234
:103CA000116170477047000010B51348006840F07C
:103CB00001001149086008464068104908400E4953
:103CC0004860084600680E4908400B4908600846ED
:103CD000006820F4802008600846406820F4FE0058
:103CE00048604FF41F008860FFF753FF4FF00060FB
:103CF0000449086010BD0000001002400000FFF8F9
:103D0000FFFFF6FE08ED00E010B50121064800F0C7
:103D100021F840B10121044800F00AF80348008866
:103D2000401C0249088010BD000400403E000020F5
:103D3000CA430282704721B1028842F00102028028
:103D400004E002884FF6FE731A4002807047014675
:103D5000888C704730B50246002000230024158A65
:103D600005EA0103958905EA010413B10CB10120AC
:103D700000E0002030BD1AB183890B43838102E04B
:103D800083898B4383817047818470470022028836
:103D90001D4B98420ED01D4B98420BD0B0F1804F76
:103DA00008D01B4B984205D01A4B984202D01A4BB0
:103DB000984204D14FF68F731A404B881A43174B21
:103DC000984207D0164B984204D04FF6FF431A4052
:103DD000CB881A4302808B8883850B8803850A4B26
:103DE00098420BD0094B984208D00E4B984205D010
:103DF0000D4B984202D00D4B984201D10B7A0386AD
:103E00000123838270470000002C014000340140F0
:103E10000004004000080040000C0040001000407A
:103E200000140040004001400044014000480140AF
:103E300010B540F225511D4800F04AF810B31B4858
:103E400000F002F9C4B21A48008800F40040C8B972
:103E50001748008800F4804060B10A2C03D000208D
:103E60001349088020E01248008840F400401049BF
:103E7000088019E00D2C06D10D48008840F48040E0
:103E80000B49088010E00A480088C0F30D0009497A
:103E90000C5407480088401C0549088008460088E3
:103EA000C72801DD0020088010BD00000038014057
:103EB000280000204400002021B1828942F40052F1
:103EC000828104E082894DF6FF731A408281704737
:103ED00070B50246002400230025002040F66A1633
:103EE000B14200D100BFC1F3421501F01F0301260A
:103EF00006FA03F3012D02D19689334006E0022D24
:103F000002D1168A334001E0968A33400C12012612
:103F100006FA04F41688344013B10CB1012000E015
:103F2000002070BDF0B503460024002600250020C7
:103F300040F66A17B94200D100BF1846C1F34214D7
:103F400001F01F06012707FA06F5012C01D10C30FC
:103F500004E0022C01D1103000E014301AB10768DF
:103F60002F43076002E00768AF430760F0BD000021
:103F70002DE9F04786B005460E460024A24600BF54
:103F8000A1460027B08900B100BF2F462C8A4CF60D
:103F9000FF700440F08804432C82AC894EF6F31085
:103FA0000440B08831890843718908430443AC81D7
:103FB000AC8A4FF6FF400440B0890443AC8201A8AC
:103FC000FFF77CFD1F48874202D1DDF810A001E019
:103FD000DDF80CA0A88900F4004040B10AEBCA004B
:103FE00000EB0A1031684900B0FBF1F807E00AEB7A
:103FF000CA0000EB0A1031688900B0FBF1F86420B8
:10400000B8FBF0F004012009642101FB1089A889A4
:1040100000F4004040B1322000EBC900B0FBF1F0E9
:1040200000F00700044308E0322000EB091064218F
:10403000B0FBF1F000F00F0004432C8106B0BDE8A6
:10404000F08700000038014001468888C0F308006E
:10405000704700BFFEE700BF7047000010B56FF06B
:104060000400FFF70BFE0A4800680A49B0FBF1F0B4
:10407000094908700846007800EB4001C1EBC01008
:104080004FF6FF7101EAC0000449088010BD00002E
:104090000C00002000127A002000002022000020E6
:1040A0000146114A12884A434FF0E0235A61002228
:1040B0009A611A46126942F001021A6100BF4FF07C
:1040C000E022106900F001021AB100F48032002AE7
:1040D000F5D04FF0E022126922F001024FF0E02308
:1040E0001A6100229A617047220000200146114A9D
:1040F00012784A434FF0E0235A6100229A611A462F
:10410000126942F001021A6100BF4FF0E02210690B
:1041100000F001021AB100F48032002AF5D04FF00D
:10412000E022126922F001024FF0E0231A6100221E
:104130009A6170472000002000BF054A128802F0F3
:104140004002002AF9D0C2B2014B1B1D1A807047F1
:10415000003801401CB50024FFF780FF4FF4A06039
:10416000FFF75EFC4FF4E13000F02CF9FCF79AFD0C
:10417000FFF7F4FBFCF77AF9FCF7D4FB4FF4784037
:10418000794908800120794908607948D0F894017C
:10419000C0437849C1F894017748006873490C31ED
:1041A0000860E0E0641CFCF7C1FA74490860FCF7A1
:1041B00011FB73490860FCF761FB724908606F48A6
:1041C000006800F095FC054600226F4B00F020FBD4
:1041D00013D96B48006800F08BFC054600226A4B3F
:1041E00000F016FB09D96748006800F081FC05461D
:1041F0000022654B00F00CFB12D85C480C300068C4
:1042000070B9012059490C310860084600685949C5
:10421000C1F894010846D0F89401C043534908609E
:104220005648006800F064FC05460022564B00F03A
:1042300029FC27D25248006800F05AFC05460022AB
:10424000514B00F01FFC1DD24E48006800F050FC9E
:10425000054600224C4B00F015FC13D243480C30AD
:10426000006801280ED1002040490C310860084642
:1042700000684049C1F894010846D0F89401C04351
:104280003A49086041A018210B46D222CDE900101E
:1042900028211E20FFF710FB3848006800F0B6FC0C
:1042A0000546182005232A46462100901E20FFF7C8
:1042B000B9FA3AA018210B46D222CDE900104621C6
:1042C0007820FFF7F9FA36A018210B46D222CDE963
:1042D000001064211E20FFF7EFFA2948006800F063
:1042E00095FC0546182005232A46822100901E20B1
:1042F000FFF798FA29A018210B46D222CDE9001029
:1043000082217820FFF7D8FA29A018210B46D22263
:10431000CDE90010A0211E20FFF7CEFA1948006851
:1043200000F074FC0546182005232A46BE210090A3
:104330001E20FFF777FA19A018210B46D222CDE9EB
:104340000010BE217820FFF7B7FA6420FFF7A8FE1F
:10435000642C08D14FF6FF70FCF77AFB4FF47840DD
:104360000149088000241DE740000020948121427B
:1043700000802142000023429401234200000020DB
:10438000040000200800002000C052404C65667404
:104390002064697374616E63653A000020636D0088
:1043A00052696768742064697374616E63653A006A
:1043B0004D6964646C652064697374616E63653A09
:1043C0000000000010B586B00446012144F204004C
:1043D000FFF764FB4FF40070ADF8140003208DF874
:1043E000160018208DF8170005A91C48FCF7F3F8F3
:1043F0004FF48060ADF8140004208DF8170005A973
:104400001648FCF7E8F825208DF8000003208DF809
:1044100001008DF8020001208DF803006846FFF7C7
:10442000C7FA01940020ADF80800ADF80A00ADF815
:104430000C00ADF810000C20ADF80E0001A90848E2
:10444000FFF796FD012240F225510548FFF76AFD6E
:1044500001210348FFF730FD06B010BD0008014000
:104460000038014021F00042A2F16052B2F5801FF5
:1044700001F0004328BFD2F17F6C0BD95FEA001C2A
:1044800043EAC20242EB507018BF704728BF20F0C9
:1044900001007047B2F5801FBCBF184670474FEA55
:1044A000410C1CF5001F02D2084600F028BC70B574
:1044B00000F094FA00000089FFF7F6BF4FF00040CB
:1044C000A0F580007047491058BFC1F140415B1012
:1044D00058BFC3F140438B42EFF3008070470000A8
:1044E0002DE9C04130B4DFF8A0C23CEA111418BF76
:1044F0003CEA131400F0EC8081EA03051CEA111475
:1045000044EAD57418BF1CEA131500F0C780A4EB69
:1045100005044FF0004545EAC12145EAC32341EABD
:10452000505143EA525304F17F74994204F5003428
:104530004FEAC0204FEAC22208BF904200F09C80A0
:104540004FEA13650FF24016765D4FEA134506FBFE
:1045500005F7C7F1807706FB07F74FEAD737A7FBC8
:1045600003687642C8F58038A7FB06CE38BFA8F1AD
:10457000010807FB08E64FF0000EA6FB028CE6FBE5
:1045800003CEDCF1000CCEF1004E38BFAEF1010ECF
:10459000A6FB0C584FF000074FF00005E6FB0E8716
:1045A000A1FB08C6A0FB07CE16EB0E0645F10005E1
:1045B000E1FB076515F1E04E7EBFA4F580345FEAAC
:1045C00046066D4116F1800745F100054FEA1727B1
:1045D0004FEA066647EA0567A6F1DE46B6F1805F58
:1045E0004FEA15251FD9384624F0010C05EBC4719C
:1045F000BCF1FE6F01EB0C1102D8F0BCBDE80081EC
:1046000024425CBF01F5801E9EEAC47F02D4F0BC48
:10461000BDE80081244238D4F0BCA1F1C041BDE81E
:10462000004100F029BA4FEAD22242EA43524FEA4F
:10463000D323A7FB02864FEAD02040EA415007FB74
:1046400003661EEA0E0F4FEAD12105FB026658BF32
:10465000A6EB0056B6EB00564FEA520E4EEAC37E6A
:1046600018EB0E0E56EB530EBDD518EB02085E414B
:104670007F1C55F10005B6E74FF480154FF0000799
:104680004FF000064FF00008ADE7F0BC4FF000001F
:1046900001F1C04101F00041BDE8008111EA0C1FA9
:1046A0000CEA131500D00CE013EA0C1F00F0258073
:1046B0004FF00000F0BC81EA030101F00041BDE8C9
:1046C0000081F0BCBDE8004181EA030100F0D4B9EB
:1046D000F0BCBDE8004170B500F080F9097EFC3EF9
:1046E00000F007B881EA03014FF0000001F000413B
:1046F000704781EA030100F0BFB9F0BCBDE800419A
:104700004FF0000021497047FFFDFBF9F7F5F4F287
:10471000F0EEEDEBE9E8E6E4E3E1E0DEDDDBDAD85C
:10472000D7D5D4D3D1D0CFCDCCCBCAC8C7C6C5C4BA
:10473000C2C1C0BFBEBDBCBBBAB9B8B7B6B5B4B3D1
:10474000B2B1B0AFAEADACABAAA9A8A8A7A6A5A4BC
:10475000A3A3A2A1A09F9F9E9D9C9C9B9A99999880
:104760009797969595949393929191908F8F8E8E23
:104770008D8C8C8B8B8A89898888878786858584B0
:1047800084838382828181800000FF070000F87F9C
:104790004FEA1153A3F58063D3F11E03A8BFD3F1F1
:1047A000200C08DB4FF0004242EAC12252EA50528C
:1047B00032FA03F0704709420BD4102BC4BF00201B
:1047C000704703F5787CBCF1FF3F05D04FF0FF3018
:1047D00070474FF00000704770B500F0FFF800BF61
:1047E0004992248000207047F0E7B0FA80F310FA75
:1047F00003F10AD0C3F11D0303F580634FEA415072
:104800004FEA035202EBD12170474FF0000070478E
:1048100051EA030C17D41CF5801F58BFBCF5801F4C
:1048200000F10680994218BF704708BF9042704758
:1048300007D711F5801F58BF13F5801F19D499426F
:104840007047894270471CF5801F08D5BCF5801F52
:10485000F7D58B4218BF704708BF824270474FF4AC
:10486000001C1CEB410F38BF1CEB430F01D28B42E5
:10487000704770B500F0B2F8922449004FF0005133
:104880004FF08053FFF71FBEDFF848C170B51CEA38
:10489000111E1EBF1CEA13159EEA0C0F95EA0C0FA1
:1048A00000F06F8081EA030423EA4C134EEAD47EC1
:1048B00021EA4C1141F4801143F48013AE44A1FB72
:1048C000024CA0FB0365AEF17F7E361955EB0C055B
:1048D000A1FB034C4CF10003A0FB021C16EB0C06E1
:1048E000654153F10003094218BF46F0010613F475
:1048F000007F0BD14FEA03314FEA0530340341EA20
:10490000155140EA16506FF003020AE04FEAC32146
:104910004FEAC520F40241EA555140EA56506FF083
:10492000020202EB2E4201EB025585EACE710AD05B
:104930005FEA440C18BF24F0004450F1000041F13C
:10494000000120EAD47040F2FE7C624500D270BDC6
:10495000A84214BF4FF080444FF04044002E08BFDF
:104960000024BEF1806FA8BFA1F1C041BDE8704036
:1049700080F282804FF0000001F1C04101F000415F
:1049800070479EEA0C0F0CEA131518BF95EA0C0F3E
:1049900006D04FF0000081EA030E0EF0004170BD1A
:1049A00000F01CF88900013E00F007B800F009B8DB
:1049B0004FEA430C5FEA5C5C08D081EA030100F037
:1049C0005BB84FEA410C5FEA5C5CF6D14FF0000047
:1049D000014970470000FF070000F87F0EF1020E4A
:1049E0002EF0030E5EF8046B364205D4012A43EB29
:1049F000030515F5001F12D8012841EB010C1CF529
:104A0000001F0CD80ED14FEAD17C15F5001F0CEB1E
:104A10004C0C0CF1020C08BF4CEBD37C04E04FF0C3
:104A2000080C01E04FEAD37C0CEB4C0526FA05F6A6
:104A300006F00706B6F1040C06D20EEB860CBDE8B4
:104A400070404CF0010C6047DFE80CF0090B0202EB
:104A50004FF000414FF00000A1F5002170BD194654
:104A60001046012851EB010418BFD4F5001484BF8F
:104A7000002001F0004170BD0808A0F500114FEAC8
:104A80003101704753EA010C17D41CF5801F58BF41
:104A9000BCF5801F00F106808B4218BF704708BF2D
:104AA0008242704707D713F5801F58BF11F5801F4A
:104AB00019D48B4270479B4270471CF5801F08D564
:104AC000BCF5801FF7D5994218BF704708BF9042C8
:104AD00070474FF4001C1CEB430F38BF1CEB410F19
:104AE00001D2994270470FB40CBC03BCFFF7C1BEA2
:104AF00043004FEAD30C4FEA3C0C43401FBF400732
:104B00000CF1605113F0FE4F70471CF0006F03D1A1
:104B100000200CF0004170470CF0004343EA507055
:104B200010B540EACC0000F0A4F800BF00000092ED
:104B30004FEA0001FFF7A0BF4FF000414FF0000027
:104B4000A1F500217047000090EA010F48BF81F0F5
:104B5000004100F1E080421A3CBF801A89184FEAF8
:104B6000D0524FF07F4C1CEA410FA2EBD15318BF3B
:104B70009CEA026F00F03B804FF0004C4CEA0020B2
:104B80004CEA012121FA03FC10EB0C0C1ED202F1BD
:104B9000FF325FEA1C2040EBC25038BF70471CF068
:104BA0007F0F4FEA400C18BFBCF17F4F38BF7047F2
:104BB000C3F12003994008BF20F00100BCF17F4FF2
:104BC00038BF7047A0F1C04000F099B84FEA3C00F0
:104BD000000A40EBC25028BF1CF0FF0F4FEA400C08
:104BE000E6D018BFBCF17F4F38BF7047EAE79CEAB8
:104BF000026F05D010EA5C0F08BF00F0004070475C
:104C000010B500F036F800BF64FBBE3EC10DD1F117
:104C10009E0206DB4FEA002343F0004323FA02F032
:104C20007047004207D54FEA4001B1F1FE4F02D272
:104C30004FF00000704710B500F01BF84992248037
:104C4000002070476FEA200070470000B0FA80F340
:104C500010FA03F2C3F19D030AD0D90501EB12202B
:104C6000530638BF704700F1010008BF20F0010073
:104C700070470EF1020E2EF0030E5EF8044B244234
:104C800004D44FEA4102B2F17F4F11D84FEA4003FA
:104C9000B3F17F4F0CD80ED14FEAD07CB2F17F4FE9
:104CA0000CEB4C0C0CF1020C08BF4CEBD17C04E07B
:104CB0004FF0080C01E04FEAD17C0CEB4C0324FAD6
:104CC00003F404F00704B4F1040C06D20EEB840CD8
:104CD000BDE810404CF0010C6047DFE80CF007081D
:104CE00002024FF00040A0F5800010BD08464200CF
:104CF00018BFD2F1807288BF00F0004010BDFF21C4
:104D000041EAD050C005704790EA010F48BF81F0DA
:104D100000413FF520AF421A04D882F00042A0EBD8
:104D2000020011444FEAD0524FF07F4C1CEA410F71
:104D3000A2EBD15318BF9CEA026F4AD04FF0004C4F
:104D40004CEA00204CEA012121FA03FCB0EB0C0CE8
:104D50000FD412F0FE0F36D05FEA4C001DD50012C2
:104D600040EBC25038BF70471CF03F0F18BF704770
:104D70000BE0A2F101025FEA1C2040EBC25038BFF9
:104D800070471CF07F0F18BF7047C3F12003994094
:104D900014BF401E20F00100704780084FEA122324
:104DA00008BF7047B0FA80FCA2EB0C02CCF1280CD3
:104DB00060FA0CF093EA122F04BF00EBC250704768
:104DC0004FEAC3707047130A5FEADC1008BF7047F0
:104DD000F6E79CEA026F04D010EA5C0F08BF0020DF
:104DE000704710B5FFF745FF40DFF63E81F0004009
:104DF00070470000000000000000000000000000FC
:104E000000003F40000000000000000030004000B3
:104E100030004000000009000BC03D000BC03D0009
:104E2000090018C024407FE02240318000001800B3
:104E300024C01B000D803240018003801C402740AD
:104E40001C800740004010006000000000000000CF
:104E500000000000000000001F80204040200000F3
:104E6000402020401F8000000000090006001F8035
:104E7000060009000000040004003F800400040054
:104E800000000010006000000000000000000400AE
:104E900004000400040004000000000000400000C2
:104EA000000000000000002001C0060038004000A3
:104EB00000001F802040204020401F800000000094
:104EC00010403FC000400000000018C021402240B8
:104ED00024401840000010802040244024401B80C3
:104EE000000002000D0011003FC0014000003C80A6
:104EF000244024402440238000001F80244024407C
:104F00003440038000003000200027C0380020001B
:104F100000001B802440244024401B8000001C0013
:104F200022C0224022401F800000000000000840F4
:104F3000000000000000000000000460000000000D
:104F40000000000004000A00110020804040090019
:104F5000090009000900090000000000404020800D
:104F600011000A000400180020002340240018004B
:104F700000001F802040274029401F4000000040C3
:104F800007C039000F0001C0004020403FC024404E
:104F900024401B8000001F802040204020403080A3
:104FA000000020403FC0204020401F8000002040E3
:104FB0003FC024402E4030C0000020403FC024406D
:104FC0002E00300000000F0010802040224033806F
:104FD000020020403FC0040004003FC020402040A9
:104FE00020403FC0204020400000006020202020C2
:104FF0003FC02000200020403FC024400B0030C0B4
:10500000204020403FC020400040004000C03FC042
:105010003C0003C03C003FC0000020403FC00C40AB
:1050200023003FC020001F802040204020401F80E0
:10503000000020403FC024402400180000001F80D2
:105040002140214020E01FA0000020403FC024401C
:10505000260019C0004018C024402440224031805E
:105060000000300020403FC0204030000000200001
:105070003F80004000403F80200020003E0001C0F3
:10508000070038002000380007C03C0007C0380087
:105090000000204039C0060039C020400000200038
:1050A000384007C0384020000000304021C0264072
:1050B000384020C00000000000007FE04020402079
:1050C0000000000070000C000380004000000000A1
:1050D000402040207FE00000000000002000400051
:1050E0002000000000000010001000100010001050
:1050F0000010000000004000000000000000000060
:1051000002800540054003C0004020003FC004402D
:105110000440038000000000038004400440064077
:10512000000000000380044024403FC00040000015
:1051300003800540054003400000000004401FC0FC
:10514000244024402000000002E005500550065095
:10515000042020403FC00440040003C00040000081
:10516000044027C0004000000000001000100410A0
:1051700027E00000000020403FC00140070004C0BD
:105180000440204020403FC000400040000007C0D5
:10519000040007C0040003C00000044007C004402E
:1051A000040003C00040000003800440044003806A
:1051B0000000041007F004500440038000000000C9
:1051C00003800440045007F00010044007C0024070
:1051D000040004000000000006400540054004C033
:1051E0000000000004001F80044000400000040094
:1051F00007800040044007C000400400070004C0CE
:10520000018006000400060001C0070001C006007E
:105210000000044006C0010006C004400000041065
:10522000071004E00180060004000000044005C0EF
:105230000640044000000000000004007BE0402025
:105240000000000000000000FFF00000000000006F
:1052500040207BE00400000000004000800040008F
:1052600020002000400000000000000000000000BE
:105270000000000000000000000000001FCC000C37
:10528000000000000000000008003000600008007E
:10529000300060000000022003FC1E20022003FCFE
:1052A0001E200220000000000E1811043FFF108491
:1052B0000C78000000000F0010840F3800C0077841
:1052C00018840078000000780F8410C411240E9810
:1052D00000E400840008080068007000000000007E
:1052E00000000000000000000000000007E01818A7
:1052F000200440020000000040022004181807E0CB
:105300000000000000000240024001800FF0018018
:105310000240024000000080008000800FF8008002
:105320000080008000000001000D000E0000000061
:10533000000000000000000000800080008000806D
:105340000080008000800000000C000C00000000C5
:10535000000000000000000000060018006001804E
:10536000060018002000000007F0080810041004D0
:10537000080807F000000000080408041FFC0004EF
:1053800000040000000000000E0C10141024104453
:1053900011840E0C000000000C18100411041104FC
:1053A00012880C700000000000E003200424082490
:1053B0001FFC0024000000001F9810841104110439
:1053C000108810700000000007F008881104110414
:1053D00018880070000000001C00100010FC130072
:1053E0001C001000000000000E38114410841084CE
:1053F00011440E38000000000700088C10441044CF
:10540000088807F00000000000000000030C030CF7
:105410000000000000000000000000010106000084
:105420000000000000000000008001400220041085
:10543000080810040000022002200220022002209E
:1054400002200220000000001004080804100220BE
:1054500001400080000000000E001200100C106CD3
:1054600010800F00000003E00C1813E4142417C48C
:10547000082807D000000004003C03C41C4007407B
:1054800000E4001C000410041FFC110411041104AA
:105490000E880070000003E00C18100410041004C3
:1054A00010081C10000010041FFC1004100410044D
:1054B000080807F0000010041FFC1104110417C4B1
:1054C00010040818000010041FFC1104110017C07C
:1054D00010000800000003E00C1810041004104431
:1054E0001C780040000010041FFC10840080008025
:1054F00010841FFC10040000100410041FFC100492
:1055000010040000000000030001100110011FFE44
:1055100010001000000010041FFC1104038014642C
:10552000181C1004000010041FFC100400040004E8
:105530000004000C000010041FFC1F0000FC1F00F2
:105540001FFC1004000010041FFC0C04030000E00A
:1055500010181FFC100007F00808100410041004B5
:10556000080807F0000010041FFC10841080108051
:1055700010800F00000007F0081810241024101CE1
:10558000080A07F2000010041FFC1104110011C0EA
:1055900011300E0C000400000E1C11041084108445
:1055A00010441C3800001800100010041FFC1004E8
:1055B00010001800000010001FF810040004000480
:1055C00010041FF8100010001E0011E0001C0070F5
:1055D00013801C0010001FC0103C00E01F0000E002
:1055E000103C1FC000001004180C163401C001C08C
:1055F0001634180C100410001C00130400FC1304D3
:105600001C00100000000804101C10641084130417
:105610001C04101800000000000000007FFE400283
:10562000400240020000000030000C0003800060D7
:10563000001C0003000000004002400240027FFE08
:1056400000000000000000000000200040004000BA
:1056500040002000000000010001000100010001E5
:105660000001000100010000400040002000000097
:1056700000000000000000000098012401440144E3
:10568000014400FC000410001FFC00880104010418
:105690000088007000000000007000880104010410
:1056A000010400880000000000700088010401046B
:1056B00011081FFC0004000000F8014401440144EB
:1056C000014400C800000000010401040FFC1104A3
:1056D000110411001800000000D601290129012938
:1056E00001C90106000010041FFC00840100010034
:1056F000010400FC000400000104190419FC00046A
:105700000004000000000000000300010101190175
:1057100019FE0000000010041FFC0024004001B42A
:10572000010C010400000000100410041FFC000420
:10573000000400000000010401FC0104010001FC60
:105740000104010000FC010401FC008401000100CF
:10575000010400FC0004000000F80104010401043D
:10576000010400F80000010101FF008501040104AB
:10577000008800700000000000700088010401042F
:10578000010501FF00010104010401FC0084010482
:10579000010001800000000000CC0124012401244C
:1057A00001240198000000000100010007F8010435
:1057B000010400000000010001F8000400040004DE
:1057C000010801FC0004010001800170000C0010C0
:1057D00001600180010001F0010C003001C00030C7
:1057E000010C01F0010000000104018C0074017043
:1057F000018C01040000010101810171000E0018FB
:1058000001600180010000000184010C01340144A9
:105810000184010C000000000000000000000100F5
:105820003EFC400240020000000000000000FFFFBC
:105830000000000000000000400240023EFC0100A9
:1058400000000000000000006000800080004000B8
:1058500040002000200000000000000000000000C8
:105860000000000000000000000000000000000038
:105870000000000000000000000000000000000028
:105880000000000000000000000F80380FFE380FFD
:105890008038000000000000000000000000000050
:1058A000000000000100000600000C0000380000AD
:1058B0003100000600000C0000380000300000003D
:1058C00000000000000061800067F807F9800061B7
:1058D000800061800061800061800067F807F980C6
:1058E00000618000000000000000000001C0E00333
:1058F000E0F00630080418081FFFFE040E080787B2
:10590000F00381E000000000000001F000060C0040
:10591000040408060C7001F9C0000E00003BE00012
:10592000EC18070808040C180003E0000000000150
:10593000E00007F003F818041C0804170807E1D07A
:1059400003C0E00023B0003C080020080000100065
:1059500000000000000100003100003200001C00C7
:105960000000000000000000000000000000000037
:105970000000000000000000000000000000000027
:105980000000000000007F0001FFC00780F00C0055
:105990001810000420000200000000000020000297
:1059A0001000040C00180780F001FFC0007F000009
:1059B00000000000000000000000000000000000E7
:1059C00000004200006600006600003C0000180075
:1059D00003FFC0001800003C0000660000660000E5
:1059E0004200000000000800000800000800000855
:1059F0000000080001FFC0000800000800000800C7
:105A00000008000008000000000000010000310054
:105A1000003200001C000000000000000000000038
:105A2000000000000000000000000000000008006E
:105A3000000800000800000800000800000800003E
:105A40000800000800000800000800000000000036
:105A5000000000000000380000380000380000009E
:105A60000000000000000000000000000000000036
:105A7000000000000000000600001C000070000193
:105A800080000E0000380000C0000700001C00006D
:105A9000300000000000000000007F8001FFE003F4
:105AA000807006001804000804000806001803802F
:105AB0007001FFE0007F8000000000000000000097
:105AC00001000801000801000803FFF807FFF800C3
:105AD00000080000080000080000000000000000AE
